{
  "address": "0xeE193080D428DB7371ac3AB154aBba0D60fc0955",
  "abi": [
    {
      "inputs": [
        {
          "internalType": "contract IManager",
          "name": "_stCeloManager",
          "type": "address"
        }
      ],
      "stateMutability": "nonpayable",
      "type": "constructor"
    },
    {
      "inputs": [],
      "name": "getRate",
      "outputs": [
        {
          "internalType": "uint256",
          "name": "",
          "type": "uint256"
        }
      ],
      "stateMutability": "view",
      "type": "function"
    },
    {
      "inputs": [],
      "name": "stCeloManager",
      "outputs": [
        {
          "internalType": "contract IManager",
          "name": "",
          "type": "address"
        }
      ],
      "stateMutability": "view",
      "type": "function"
    }
  ],
  "transactionHash": "0x6bb3ec4a2b806409a9c7d3d0a6903dd68bf48cec21f0749ee01c990bc65ec854",
  "args": [
    "0x0239b96D10a434a56CC9E09383077A0490cF9398"
  ],
  "numDeployments": 1,
  "solcInputHash": "9d96d9fa0d5230176a674e6068574a02",
  "bytecode": "0x60a060405234801561001057600080fd5b506040516101f73803806101f78339818101604052602081101561003357600080fd5b5051606081901b6001600160601b0319166080526001600160a01b031661018c61006b60003980608a5280610134525061018c6000f3fe608060405234801561001057600080fd5b50600436106100365760003560e01c8063679aefce1461003b5780639d738b9b14610055575b600080fd5b610043610086565b60408051918252519081900360200190f35b61005d610132565b6040805173ffffffffffffffffffffffffffffffffffffffff9092168252519081900360200190f35b60007f000000000000000000000000000000000000000000000000000000000000000073ffffffffffffffffffffffffffffffffffffffff16630567847f670de0b6b3a76400006040518263ffffffff1660e01b81526004018082815260200191505060206040518083038186803b15801561010157600080fd5b505afa158015610115573d6000803e3d6000fd5b505050506040513d602081101561012b57600080fd5b5051905090565b7f00000000000000000000000000000000000000000000000000000000000000008156fea2646970667358221220c895e35931da7775faf70e1bac9f455fd0a514626661a9d26b2827758ff12ba864736f6c63430007010033",
  "devdoc": {
    "kind": "dev",
    "methods": {
      "getRate()": {
        "returns": {
          "_0": "the value of wstETH in terms of stETH"
        }
      }
    },
    "title": "Wrapped stCelo Rate Provider",
    "version": 1
  },
  "userdoc": {
    "kind": "user",
    "methods": {},
    "notice": "Returns the value of stCelo in terms of Celo staked",
    "version": 1
  },
  "storageLayout": {
    "storage": [],
    "types": null
  }
}