{
  "address": "0x1D2540EFe05f5b53abABb7Be1780B370Bd3407aE",
  "abi": [
    {
      "inputs": [
        {
          "internalType": "contract IERC20",
          "name": "rfp",
          "type": "address"
        },
        {
          "internalType": "uint256[]",
          "name": "thresholds",
          "type": "uint256[]"
        },
        {
          "internalType": "string[]",
          "name": "uris",
          "type": "string[]"
        }
      ],
      "stateMutability": "nonpayable",
      "type": "constructor"
    },
    {
      "inputs": [],
      "name": "InvalidTier",
      "type": "error"
    },
    {
      "inputs": [],
      "name": "InvalidZero",
      "type": "error"
    },
    {
      "inputs": [],
      "name": "OneTokenPerAddress",
      "type": "error"
    },
    {
      "anonymous": false,
      "inputs": [
        {
          "indexed": true,
          "internalType": "address",
          "name": "owner",
          "type": "address"
        },
        {
          "indexed": true,
          "internalType": "address",
          "name": "approved",
          "type": "address"
        },
        {
          "indexed": true,
          "internalType": "uint256",
          "name": "tokenId",
          "type": "uint256"
        }
      ],
      "name": "Approval",
      "type": "event"
    },
    {
      "anonymous": false,
      "inputs": [
        {
          "indexed": true,
          "internalType": "address",
          "name": "owner",
          "type": "address"
        },
        {
          "indexed": true,
          "internalType": "address",
          "name": "operator",
          "type": "address"
        },
        {
          "indexed": false,
          "internalType": "bool",
          "name": "approved",
          "type": "bool"
        }
      ],
      "name": "ApprovalForAll",
      "type": "event"
    },
    {
      "anonymous": false,
      "inputs": [
        {
          "indexed": false,
          "internalType": "uint256",
          "name": "",
          "type": "uint256"
        },
        {
          "indexed": false,
          "internalType": "string",
          "name": "",
          "type": "string"
        }
      ],
      "name": "NewTier",
      "type": "event"
    },
    {
      "anonymous": false,
      "inputs": [
        {
          "indexed": true,
          "internalType": "address",
          "name": "previousOwner",
          "type": "address"
        },
        {
          "indexed": true,
          "internalType": "address",
          "name": "newOwner",
          "type": "address"
        }
      ],
      "name": "OwnershipTransferred",
      "type": "event"
    },
    {
      "anonymous": false,
      "inputs": [
        {
          "indexed": false,
          "internalType": "uint256",
          "name": "tokenId",
          "type": "uint256"
        },
        {
          "indexed": false,
          "internalType": "uint256",
          "name": "points",
          "type": "uint256"
        },
        {
          "indexed": false,
          "internalType": "uint256",
          "name": "newTier",
          "type": "uint256"
        }
      ],
      "name": "PointsAdded",
      "type": "event"
    },
    {
      "anonymous": false,
      "inputs": [
        {
          "indexed": false,
          "internalType": "uint256[]",
          "name": "thresholds",
          "type": "uint256[]"
        }
      ],
      "name": "ThresholdsSet",
      "type": "event"
    },
    {
      "anonymous": false,
      "inputs": [
        {
          "indexed": true,
          "internalType": "address",
          "name": "from",
          "type": "address"
        },
        {
          "indexed": true,
          "internalType": "address",
          "name": "to",
          "type": "address"
        },
        {
          "indexed": true,
          "internalType": "uint256",
          "name": "tokenId",
          "type": "uint256"
        }
      ],
      "name": "Transfer",
      "type": "event"
    },
    {
      "anonymous": false,
      "inputs": [
        {
          "indexed": false,
          "internalType": "string[]",
          "name": "uris",
          "type": "string[]"
        }
      ],
      "name": "UrisSet",
      "type": "event"
    },
    {
      "inputs": [
        {
          "internalType": "uint256",
          "name": "threshold",
          "type": "uint256"
        },
        {
          "internalType": "string",
          "name": "uri",
          "type": "string"
        }
      ],
      "name": "addTier",
      "outputs": [],
      "stateMutability": "nonpayable",
      "type": "function"
    },
    {
      "inputs": [
        {
          "internalType": "address",
          "name": "to",
          "type": "address"
        },
        {
          "internalType": "uint256",
          "name": "tokenId",
          "type": "uint256"
        }
      ],
      "name": "approve",
      "outputs": [],
      "stateMutability": "nonpayable",
      "type": "function"
    },
    {
      "inputs": [
        {
          "internalType": "address",
          "name": "owner",
          "type": "address"
        }
      ],
      "name": "balanceOf",
      "outputs": [
        {
          "internalType": "uint256",
          "name": "",
          "type": "uint256"
        }
      ],
      "stateMutability": "view",
      "type": "function"
    },
    {
      "inputs": [
        {
          "internalType": "uint256",
          "name": "idx",
          "type": "uint256"
        },
        {
          "internalType": "uint256",
          "name": "threshold",
          "type": "uint256"
        },
        {
          "internalType": "string",
          "name": "uri",
          "type": "string"
        }
      ],
      "name": "editTier",
      "outputs": [],
      "stateMutability": "nonpayable",
      "type": "function"
    },
    {
      "inputs": [
        {
          "internalType": "uint256",
          "name": "tokenId",
          "type": "uint256"
        },
        {
          "internalType": "uint256",
          "name": "amount",
          "type": "uint256"
        }
      ],
      "name": "feedToken",
      "outputs": [],
      "stateMutability": "nonpayable",
      "type": "function"
    },
    {
      "inputs": [
        {
          "internalType": "uint256",
          "name": "tokenId",
          "type": "uint256"
        }
      ],
      "name": "getApproved",
      "outputs": [
        {
          "internalType": "address",
          "name": "",
          "type": "address"
        }
      ],
      "stateMutability": "view",
      "type": "function"
    },
    {
      "inputs": [
        {
          "internalType": "address",
          "name": "account",
          "type": "address"
        }
      ],
      "name": "getOwnerPoints",
      "outputs": [
        {
          "internalType": "uint256",
          "name": "tier",
          "type": "uint256"
        }
      ],
      "stateMutability": "view",
      "type": "function"
    },
    {
      "inputs": [
        {
          "internalType": "address",
          "name": "account",
          "type": "address"
        }
      ],
      "name": "getOwnerTier",
      "outputs": [
        {
          "internalType": "uint256",
          "name": "tier",
          "type": "uint256"
        }
      ],
      "stateMutability": "view",
      "type": "function"
    },
    {
      "inputs": [
        {
          "internalType": "address",
          "name": "owner",
          "type": "address"
        },
        {
          "internalType": "address",
          "name": "operator",
          "type": "address"
        }
      ],
      "name": "isApprovedForAll",
      "outputs": [
        {
          "internalType": "bool",
          "name": "",
          "type": "bool"
        }
      ],
      "stateMutability": "view",
      "type": "function"
    },
    {
      "inputs": [
        {
          "internalType": "address",
          "name": "account",
          "type": "address"
        }
      ],
      "name": "mint",
      "outputs": [],
      "stateMutability": "nonpayable",
      "type": "function"
    },
    {
      "inputs": [],
      "name": "name",
      "outputs": [
        {
          "internalType": "string",
          "name": "",
          "type": "string"
        }
      ],
      "stateMutability": "view",
      "type": "function"
    },
    {
      "inputs": [],
      "name": "owner",
      "outputs": [
        {
          "internalType": "address",
          "name": "",
          "type": "address"
        }
      ],
      "stateMutability": "view",
      "type": "function"
    },
    {
      "inputs": [
        {
          "internalType": "uint256",
          "name": "tokenId",
          "type": "uint256"
        }
      ],
      "name": "ownerOf",
      "outputs": [
        {
          "internalType": "address",
          "name": "",
          "type": "address"
        }
      ],
      "stateMutability": "view",
      "type": "function"
    },
    {
      "inputs": [
        {
          "internalType": "address",
          "name": "",
          "type": "address"
        }
      ],
      "name": "ownerTokenId",
      "outputs": [
        {
          "internalType": "uint256",
          "name": "",
          "type": "uint256"
        }
      ],
      "stateMutability": "view",
      "type": "function"
    },
    {
      "inputs": [],
      "name": "renounceOwnership",
      "outputs": [],
      "stateMutability": "nonpayable",
      "type": "function"
    },
    {
      "inputs": [
        {
          "internalType": "address",
          "name": "from",
          "type": "address"
        },
        {
          "internalType": "address",
          "name": "to",
          "type": "address"
        },
        {
          "internalType": "uint256",
          "name": "tokenId",
          "type": "uint256"
        }
      ],
      "name": "safeTransferFrom",
      "outputs": [],
      "stateMutability": "nonpayable",
      "type": "function"
    },
    {
      "inputs": [
        {
          "internalType": "address",
          "name": "from",
          "type": "address"
        },
        {
          "internalType": "address",
          "name": "to",
          "type": "address"
        },
        {
          "internalType": "uint256",
          "name": "tokenId",
          "type": "uint256"
        },
        {
          "internalType": "bytes",
          "name": "data",
          "type": "bytes"
        }
      ],
      "name": "safeTransferFrom",
      "outputs": [],
      "stateMutability": "nonpayable",
      "type": "function"
    },
    {
      "inputs": [
        {
          "internalType": "address",
          "name": "operator",
          "type": "address"
        },
        {
          "internalType": "bool",
          "name": "approved",
          "type": "bool"
        }
      ],
      "name": "setApprovalForAll",
      "outputs": [],
      "stateMutability": "nonpayable",
      "type": "function"
    },
    {
      "inputs": [
        {
          "internalType": "bytes4",
          "name": "interfaceId",
          "type": "bytes4"
        }
      ],
      "name": "supportsInterface",
      "outputs": [
        {
          "internalType": "bool",
          "name": "",
          "type": "bool"
        }
      ],
      "stateMutability": "view",
      "type": "function"
    },
    {
      "inputs": [],
      "name": "symbol",
      "outputs": [
        {
          "internalType": "string",
          "name": "",
          "type": "string"
        }
      ],
      "stateMutability": "view",
      "type": "function"
    },
    {
      "inputs": [
        {
          "internalType": "uint256",
          "name": "",
          "type": "uint256"
        }
      ],
      "name": "tokenIdPoints",
      "outputs": [
        {
          "internalType": "uint256",
          "name": "",
          "type": "uint256"
        }
      ],
      "stateMutability": "view",
      "type": "function"
    },
    {
      "inputs": [
        {
          "internalType": "uint256",
          "name": "",
          "type": "uint256"
        }
      ],
      "name": "tokenIdTier",
      "outputs": [
        {
          "internalType": "uint256",
          "name": "",
          "type": "uint256"
        }
      ],
      "stateMutability": "view",
      "type": "function"
    },
    {
      "inputs": [
        {
          "internalType": "uint256",
          "name": "tokenId",
          "type": "uint256"
        }
      ],
      "name": "tokenURI",
      "outputs": [
        {
          "internalType": "string",
          "name": "",
          "type": "string"
        }
      ],
      "stateMutability": "view",
      "type": "function"
    },
    {
      "inputs": [
        {
          "internalType": "address",
          "name": "from",
          "type": "address"
        },
        {
          "internalType": "address",
          "name": "to",
          "type": "address"
        },
        {
          "internalType": "uint256",
          "name": "tokenId",
          "type": "uint256"
        }
      ],
      "name": "transferFrom",
      "outputs": [],
      "stateMutability": "nonpayable",
      "type": "function"
    },
    {
      "inputs": [
        {
          "internalType": "address",
          "name": "newOwner",
          "type": "address"
        }
      ],
      "name": "transferOwnership",
      "outputs": [],
      "stateMutability": "nonpayable",
      "type": "function"
    }
  ],
  "transactionHash": "0xcd8b3fe7214172aa90f8fddaa825d3ee58ca6e831bcb4b28a0b4f8fec0b76cbe",
  "args": [
    "0x1b5a1fDdd235d9a4c73F061318E017Bb52aCD444",
    [
      "0",
      "50000000000000000000",
      "250000000000000000000",
      "1000000000000000000000",
      "2500000000000000000000",
      "5000000000000000000000"
    ],
    [
      "QmQeaUqw9SNXc1KzfLWDwXccBUr3uTdjhLJGDNZyAmDQMZ",
      "QmdTJAaf6Mhjs28yznELyaQ66mYXwMAXPgwWcre5fJ43VJ",
      "QmY85yz2EXvTN4aLsb9Xw26CBUD8PTrPGgBEoRBcJoGUTc",
      "QmfE9yEa3eeBN9vKHVsmzze1JeoWqsWJFazuFiVxUL1akW",
      "QmRqdmKQb21JiFaqddK3PATWdUE43i1gBXbiEXqSq38Bm8",
      "QmSxjsbQ2ZfAWDvbnenZnodUEAdX5U9DZ55F4fTDMriGaT"
    ]
  ],
  "numDeployments": 1,
  "solcInputHash": "27c2d2099eb1c6d5549cf430c1037a7d",
  "bytecode": "0x6080604052600a805460ff191690553480156200001b57600080fd5b50604051620028af380380620028af8339810160408190526200003e9162000446565b604051806040016040528060088152602001671499519a4813919560c21b81525060405180604001604052806005815260200164149193919560da1b81525081600090816200008e9190620005bd565b5060016200009d8282620005bd565b505050620000ba620000b46200014b60201b60201c565b6200014f565b600e80546001600160a01b0319166001600160a01b03851617905560005b825181101562000141576200012c838281518110620000fb57620000fb62000689565b602002602001015183838151811062000118576200011862000689565b6020026020010151620001a160201b60201c565b8062000138816200069f565b915050620000d8565b5050505062000703565b3390565b600680546001600160a01b038381166001600160a01b0319831681179093556040519116919082907f8be0079c531659141344cd1fd0a4f28419497f9722a3daafe3b4186f6b6457e090600090a35050565b620001ab62000256565b600b805460018181019092557f0175b7a638427703f0dbe7bb9bbf987a2551717b34e79f33b5b1008d1fa01db901839055600c805491820181556000527fdf6966c971051c3d54ec59162606531493a51404a002842f56009d7e5cf4a8c701620002168282620005bd565b507f44382b80b929d8771a9987012117d87deb44878e59e745cf761beb56fd2cbafa82826040516200024a929190620006c7565b60405180910390a15050565b6006546001600160a01b03163314620002b55760405162461bcd60e51b815260206004820181905260248201527f4f776e61626c653a2063616c6c6572206973206e6f7420746865206f776e6572604482015260640160405180910390fd5b565b634e487b7160e01b600052604160045260246000fd5b604051601f8201601f191681016001600160401b0381118282101715620002f857620002f8620002b7565b604052919050565b60006001600160401b038211156200031c576200031c620002b7565b5060051b60200190565b60005b838110156200034357818101518382015260200162000329565b50506000910152565b6000601f83818401126200035f57600080fd5b8251602062000378620003728362000300565b620002cd565b82815260059290921b850181019181810190878411156200039857600080fd5b8287015b848110156200043a5780516001600160401b0380821115620003be5760008081fd5b818a0191508a603f830112620003d45760008081fd5b85820151604082821115620003ed57620003ed620002b7565b62000400828b01601f19168901620002cd565b92508183528c81838601011115620004185760008081fd5b620004298289850183870162000326565b50508452509183019183016200039c565b50979650505050505050565b6000806000606084860312156200045c57600080fd5b83516001600160a01b03811681146200047457600080fd5b602085810151919450906001600160401b03808211156200049457600080fd5b818701915087601f830112620004a957600080fd5b8151620004ba620003728262000300565b81815260059190911b8301840190848101908a831115620004da57600080fd5b938501935b82851015620004fa57845182529385019390850190620004df565b60408a015190975094505050808311156200051457600080fd5b505062000524868287016200034c565b9150509250925092565b600181811c908216806200054357607f821691505b6020821081036200056457634e487b7160e01b600052602260045260246000fd5b50919050565b601f821115620005b857600081815260208120601f850160051c81016020861015620005935750805b601f850160051c820191505b81811015620005b4578281556001016200059f565b5050505b505050565b81516001600160401b03811115620005d957620005d9620002b7565b620005f181620005ea84546200052e565b846200056a565b602080601f831160018114620006295760008415620006105750858301515b600019600386901b1c1916600185901b178555620005b4565b600085815260208120601f198616915b828110156200065a5788860151825594840194600190910190840162000639565b5085821015620006795787850151600019600388901b60f8161c191681555b5050505050600190811b01905550565b634e487b7160e01b600052603260045260246000fd5b600060018201620006c057634e487b7160e01b600052601160045260246000fd5b5060010190565b8281526040602082015260008251806040840152620006ee81606085016020870162000326565b601f01601f1916919091016060019392505050565b61219c80620007136000396000f3fe608060405234801561001057600080fd5b50600436106101a35760003560e01c8063715018a6116100ee578063b9eca90111610097578063e8f35d5a11610071578063e8f35d5a146103cf578063e985e9c514610412578063f2fde38b1461045b578063f38210c61461046e57600080fd5b8063b9eca9011461037c578063c87b56dd1461039c578063c961df1f146103af57600080fd5b8063a22cb465116100c8578063a22cb46514610343578063ac8de2b014610356578063b88d4fde1461036957600080fd5b8063715018a6146103155780638da5cb5b1461031d57806395d89b411461033b57600080fd5b806335def945116101505780636352211e1161012a5780636352211e146102dc5780636a627842146102ef57806370a082311461030257600080fd5b806335def9451461027357806342842e0e14610286578063530f52541461029957600080fd5b8063095ea7b311610181578063095ea7b31461021d57806323b872dd1461023257806327329fea1461024557600080fd5b806301ffc9a7146101a857806306fdde03146101d0578063081812fc146101e5575b600080fd5b6101bb6101b63660046119b6565b610481565b60405190151581526020015b60405180910390f35b6101d8610566565b6040516101c79190611a48565b6101f86101f3366004611a5b565b6105f8565b60405173ffffffffffffffffffffffffffffffffffffffff90911681526020016101c7565b61023061022b366004611a9d565b61062c565b005b610230610240366004611ac7565b6107b4565b610265610253366004611b03565b60076020526000908152604090205481565b6040519081526020016101c7565b610230610281366004611c01565b61083b565b610230610294366004611ac7565b610895565b6102656102a7366004611b03565b73ffffffffffffffffffffffffffffffffffffffff166000908152600760209081526040808320548352600990915290205490565b6101f86102ea366004611a5b565b6108b0565b6102306102fd366004611b03565b610922565b610265610310366004611b03565b6109c4565b610230610a78565b60065473ffffffffffffffffffffffffffffffffffffffff166101f8565b6101d8610a8c565b610230610351366004611c5f565b610a9b565b610230610364366004611c96565b610aaa565b610230610377366004611cb8565b610c15565b61026561038a366004611a5b565b60096020526000908152604090205481565b6101d86103aa366004611a5b565b610c9d565b6102656103bd366004611a5b565b60086020526000908152604090205481565b6102656103dd366004611b03565b73ffffffffffffffffffffffffffffffffffffffff166000908152600760209081526040808320548352600890915290205490565b6101bb610420366004611d34565b73ffffffffffffffffffffffffffffffffffffffff918216600090815260056020908152604080832093909416825291909152205460ff1690565b610230610469366004611b03565b610d3f565b61023061047c366004611d67565b610dd9565b60007fffffffff0000000000000000000000000000000000000000000000000000000082167f80ac58cd00000000000000000000000000000000000000000000000000000000148061051457507fffffffff0000000000000000000000000000000000000000000000000000000082167f5b5e139f00000000000000000000000000000000000000000000000000000000145b8061056057507f01ffc9a7000000000000000000000000000000000000000000000000000000007fffffffff000000000000000000000000000000000000000000000000000000008316145b92915050565b60606000805461057590611dae565b80601f01602080910402602001604051908101604052809291908181526020018280546105a190611dae565b80156105ee5780601f106105c3576101008083540402835291602001916105ee565b820191906000526020600020905b8154815290600101906020018083116105d157829003601f168201915b5050505050905090565b600061060382610e88565b5060009081526004602052604090205473ffffffffffffffffffffffffffffffffffffffff1690565b6000610637826108b0565b90508073ffffffffffffffffffffffffffffffffffffffff168373ffffffffffffffffffffffffffffffffffffffff16036106df5760405162461bcd60e51b815260206004820152602160248201527f4552433732313a20617070726f76616c20746f2063757272656e74206f776e6560448201527f720000000000000000000000000000000000000000000000000000000000000060648201526084015b60405180910390fd5b3373ffffffffffffffffffffffffffffffffffffffff82161480610733575073ffffffffffffffffffffffffffffffffffffffff8116600090815260056020908152604080832033845290915290205460ff165b6107a55760405162461bcd60e51b815260206004820152603d60248201527f4552433732313a20617070726f76652063616c6c6572206973206e6f7420746f60448201527f6b656e206f776e6572206f7220617070726f76656420666f7220616c6c00000060648201526084016106d6565b6107af8383610ef9565b505050565b6107be3382610f99565b6108305760405162461bcd60e51b815260206004820152602d60248201527f4552433732313a2063616c6c6572206973206e6f7420746f6b656e206f776e6560448201527f72206f7220617070726f7665640000000000000000000000000000000000000060648201526084016106d6565b6107af838383611059565b610843611306565b81600b848154811061085757610857611dfb565b906000526020600020018190555080600c848154811061087957610879611dfb565b90600052602060002001908161088f9190611e78565b50505050565b6107af83838360405180602001604052806000815250610c15565b60008181526002602052604081205473ffffffffffffffffffffffffffffffffffffffff16806105605760405162461bcd60e51b815260206004820152601860248201527f4552433732313a20696e76616c696420746f6b656e204944000000000000000060448201526064016106d6565b600061092d826109c4565b1115610965576040517f462c287600000000000000000000000000000000000000000000000000000000815260040160405180910390fd5b600d805490600061097583611fc1565b9091555050600d805473ffffffffffffffffffffffffffffffffffffffff83166000908152600760209081526040808320849055928252600890522060019055546109c190829061136d565b50565b600073ffffffffffffffffffffffffffffffffffffffff8216610a4f5760405162461bcd60e51b815260206004820152602960248201527f4552433732313a2061646472657373207a65726f206973206e6f74206120766160448201527f6c6964206f776e6572000000000000000000000000000000000000000000000060648201526084016106d6565b5073ffffffffffffffffffffffffffffffffffffffff1660009081526003602052604090205490565b610a80611306565b610a8a6000611544565b565b60606001805461057590611dae565b610aa63383836115bb565b5050565b81600003610ae4576040517f1e28d68500000000000000000000000000000000000000000000000000000000815260040160405180910390fd5b60008281526009602052604081205490610afe8383611ff9565b90506000610b0b826116ce565b6000868152600860209081526040808320849055600990915290819020849055600e5490517f23b872dd0000000000000000000000000000000000000000000000000000000081523360048201523060248201526044810187905291925073ffffffffffffffffffffffffffffffffffffffff16906323b872dd906064016020604051808303816000875af1158015610ba8573d6000803e3d6000fd5b505050506040513d601f19601f82011682018060405250810190610bcc919061200c565b5060408051868152602081018690529081018290527f0b21a8702b4d74fd19c15ce2cda1a024c38af191eba0dd1f5fc43ec8b9a687709060600160405180910390a15050505050565b610c1f3383610f99565b610c915760405162461bcd60e51b815260206004820152602d60248201527f4552433732313a2063616c6c6572206973206e6f7420746f6b656e206f776e6560448201527f72206f7220617070726f7665640000000000000000000000000000000000000060648201526084016106d6565b61088f84848484611726565b6060610ca882610e88565b600082815260086020908152604091829020548251808401909352600783527f697066733a2f2f000000000000000000000000000000000000000000000000009183019190915290600c610cfd600184612029565b81548110610d0d57610d0d611dfb565b90600052602060002001604051602001610d2892919061203c565b604051602081830303815290604052915050919050565b610d47611306565b73ffffffffffffffffffffffffffffffffffffffff8116610dd05760405162461bcd60e51b815260206004820152602660248201527f4f776e61626c653a206e6577206f776e657220697320746865207a65726f206160448201527f646472657373000000000000000000000000000000000000000000000000000060648201526084016106d6565b6109c181611544565b610de1611306565b600b805460018181019092557f0175b7a638427703f0dbe7bb9bbf987a2551717b34e79f33b5b1008d1fa01db901839055600c805491820181556000527fdf6966c971051c3d54ec59162606531493a51404a002842f56009d7e5cf4a8c701610e4a8282611e78565b507f44382b80b929d8771a9987012117d87deb44878e59e745cf761beb56fd2cbafa8282604051610e7c9291906120e7565b60405180910390a15050565b60008181526002602052604090205473ffffffffffffffffffffffffffffffffffffffff166109c15760405162461bcd60e51b815260206004820152601860248201527f4552433732313a20696e76616c696420746f6b656e204944000000000000000060448201526064016106d6565b600081815260046020526040902080547fffffffffffffffffffffffff00000000000000000000000000000000000000001673ffffffffffffffffffffffffffffffffffffffff84169081179091558190610f53826108b0565b73ffffffffffffffffffffffffffffffffffffffff167f8c5be1e5ebec7d5bd14f71427d1e84f3dd0314c0f7b2291e5b200ac8c7c3b92560405160405180910390a45050565b600080610fa5836108b0565b90508073ffffffffffffffffffffffffffffffffffffffff168473ffffffffffffffffffffffffffffffffffffffff161480611013575073ffffffffffffffffffffffffffffffffffffffff80821660009081526005602090815260408083209388168352929052205460ff165b8061105157508373ffffffffffffffffffffffffffffffffffffffff16611039846105f8565b73ffffffffffffffffffffffffffffffffffffffff16145b949350505050565b8273ffffffffffffffffffffffffffffffffffffffff16611079826108b0565b73ffffffffffffffffffffffffffffffffffffffff16146111025760405162461bcd60e51b815260206004820152602560248201527f4552433732313a207472616e736665722066726f6d20696e636f72726563742060448201527f6f776e657200000000000000000000000000000000000000000000000000000060648201526084016106d6565b73ffffffffffffffffffffffffffffffffffffffff821661118a5760405162461bcd60e51b8152602060048201526024808201527f4552433732313a207472616e7366657220746f20746865207a65726f2061646460448201527f726573730000000000000000000000000000000000000000000000000000000060648201526084016106d6565b8273ffffffffffffffffffffffffffffffffffffffff166111aa826108b0565b73ffffffffffffffffffffffffffffffffffffffff16146112335760405162461bcd60e51b815260206004820152602560248201527f4552433732313a207472616e736665722066726f6d20696e636f72726563742060448201527f6f776e657200000000000000000000000000000000000000000000000000000060648201526084016106d6565b600081815260046020908152604080832080547fffffffffffffffffffffffff000000000000000000000000000000000000000090811690915573ffffffffffffffffffffffffffffffffffffffff8781168086526003855283862080547fffffffffffffffffffffffffffffffffffffffffffffffffffffffffffffffff01905590871680865283862080546001019055868652600290945282852080549092168417909155905184937fddf252ad1be2c89b69c2b068fc378daa952ba7f163c4a11628f55a4df523b3ef91a4505050565b60065473ffffffffffffffffffffffffffffffffffffffff163314610a8a5760405162461bcd60e51b815260206004820181905260248201527f4f776e61626c653a2063616c6c6572206973206e6f7420746865206f776e657260448201526064016106d6565b73ffffffffffffffffffffffffffffffffffffffff82166113d05760405162461bcd60e51b815260206004820181905260248201527f4552433732313a206d696e7420746f20746865207a65726f206164647265737360448201526064016106d6565b60008181526002602052604090205473ffffffffffffffffffffffffffffffffffffffff16156114425760405162461bcd60e51b815260206004820152601c60248201527f4552433732313a20746f6b656e20616c7265616479206d696e7465640000000060448201526064016106d6565b60008181526002602052604090205473ffffffffffffffffffffffffffffffffffffffff16156114b45760405162461bcd60e51b815260206004820152601c60248201527f4552433732313a20746f6b656e20616c7265616479206d696e7465640000000060448201526064016106d6565b73ffffffffffffffffffffffffffffffffffffffff8216600081815260036020908152604080832080546001019055848352600290915280822080547fffffffffffffffffffffffff0000000000000000000000000000000000000000168417905551839291907fddf252ad1be2c89b69c2b068fc378daa952ba7f163c4a11628f55a4df523b3ef908290a45050565b6006805473ffffffffffffffffffffffffffffffffffffffff8381167fffffffffffffffffffffffff0000000000000000000000000000000000000000831681179093556040519116919082907f8be0079c531659141344cd1fd0a4f28419497f9722a3daafe3b4186f6b6457e090600090a35050565b8173ffffffffffffffffffffffffffffffffffffffff168373ffffffffffffffffffffffffffffffffffffffff16036116365760405162461bcd60e51b815260206004820152601960248201527f4552433732313a20617070726f766520746f2063616c6c65720000000000000060448201526064016106d6565b73ffffffffffffffffffffffffffffffffffffffff83811660008181526005602090815260408083209487168084529482529182902080547fffffffffffffffffffffffffffffffffffffffffffffffffffffffffffffff001686151590811790915591519182527f17307eab39ab6107e8899845ad3d59bd9653f200f220920489ca2b5937696c31910160405180910390a3505050565b6000805b600b5481101561172057600b81815481106116ef576116ef611dfb565b9060005260206000200154831061170e578161170a81611fc1565b9250505b8061171881611fc1565b9150506116d2565b50919050565b611731848484611059565b61173d848484846117af565b61088f5760405162461bcd60e51b815260206004820152603260248201527f4552433732313a207472616e7366657220746f206e6f6e20455243373231526560448201527f63656976657220696d706c656d656e746572000000000000000000000000000060648201526084016106d6565b600073ffffffffffffffffffffffffffffffffffffffff84163b1561197d576040517f150b7a0200000000000000000000000000000000000000000000000000000000815273ffffffffffffffffffffffffffffffffffffffff85169063150b7a0290611826903390899088908890600401612100565b6020604051808303816000875af192505050801561187f575060408051601f3d9081017fffffffffffffffffffffffffffffffffffffffffffffffffffffffffffffffe016820190925261187c91810190612149565b60015b611932573d8080156118ad576040519150601f19603f3d011682016040523d82523d6000602084013e6118b2565b606091505b50805160000361192a5760405162461bcd60e51b815260206004820152603260248201527f4552433732313a207472616e7366657220746f206e6f6e20455243373231526560448201527f63656976657220696d706c656d656e746572000000000000000000000000000060648201526084016106d6565b805181602001fd5b7fffffffff00000000000000000000000000000000000000000000000000000000167f150b7a0200000000000000000000000000000000000000000000000000000000149050611051565b506001949350505050565b7fffffffff00000000000000000000000000000000000000000000000000000000811681146109c157600080fd5b6000602082840312156119c857600080fd5b81356119d381611988565b9392505050565b60005b838110156119f55781810151838201526020016119dd565b50506000910152565b60008151808452611a168160208601602086016119da565b601f017fffffffffffffffffffffffffffffffffffffffffffffffffffffffffffffffe0169290920160200192915050565b6020815260006119d360208301846119fe565b600060208284031215611a6d57600080fd5b5035919050565b803573ffffffffffffffffffffffffffffffffffffffff81168114611a9857600080fd5b919050565b60008060408385031215611ab057600080fd5b611ab983611a74565b946020939093013593505050565b600080600060608486031215611adc57600080fd5b611ae584611a74565b9250611af360208501611a74565b9150604084013590509250925092565b600060208284031215611b1557600080fd5b6119d382611a74565b7f4e487b7100000000000000000000000000000000000000000000000000000000600052604160045260246000fd5b600067ffffffffffffffff80841115611b6857611b68611b1e565b604051601f85017fffffffffffffffffffffffffffffffffffffffffffffffffffffffffffffffe0908116603f01168101908282118183101715611bae57611bae611b1e565b81604052809350858152868686011115611bc757600080fd5b858560208301376000602087830101525050509392505050565b600082601f830112611bf257600080fd5b6119d383833560208501611b4d565b600080600060608486031215611c1657600080fd5b8335925060208401359150604084013567ffffffffffffffff811115611c3b57600080fd5b611c4786828701611be1565b9150509250925092565b80151581146109c157600080fd5b60008060408385031215611c7257600080fd5b611c7b83611a74565b91506020830135611c8b81611c51565b809150509250929050565b60008060408385031215611ca957600080fd5b50508035926020909101359150565b60008060008060808587031215611cce57600080fd5b611cd785611a74565b9350611ce560208601611a74565b925060408501359150606085013567ffffffffffffffff811115611d0857600080fd5b8501601f81018713611d1957600080fd5b611d2887823560208401611b4d565b91505092959194509250565b60008060408385031215611d4757600080fd5b611d5083611a74565b9150611d5e60208401611a74565b90509250929050565b60008060408385031215611d7a57600080fd5b82359150602083013567ffffffffffffffff811115611d9857600080fd5b611da485828601611be1565b9150509250929050565b600181811c90821680611dc257607f821691505b602082108103611720577f4e487b7100000000000000000000000000000000000000000000000000000000600052602260045260246000fd5b7f4e487b7100000000000000000000000000000000000000000000000000000000600052603260045260246000fd5b601f8211156107af57600081815260208120601f850160051c81016020861015611e515750805b601f850160051c820191505b81811015611e7057828155600101611e5d565b505050505050565b815167ffffffffffffffff811115611e9257611e92611b1e565b611ea681611ea08454611dae565b84611e2a565b602080601f831160018114611ef95760008415611ec35750858301515b7fffffffffffffffffffffffffffffffffffffffffffffffffffffffffffffffff600386901b1c1916600185901b178555611e70565b6000858152602081207fffffffffffffffffffffffffffffffffffffffffffffffffffffffffffffffe08616915b82811015611f4657888601518255948401946001909101908401611f27565b5085821015611f8257878501517fffffffffffffffffffffffffffffffffffffffffffffffffffffffffffffffff600388901b60f8161c191681555b5050505050600190811b01905550565b7f4e487b7100000000000000000000000000000000000000000000000000000000600052601160045260246000fd5b60007fffffffffffffffffffffffffffffffffffffffffffffffffffffffffffffffff8203611ff257611ff2611f92565b5060010190565b8082018082111561056057610560611f92565b60006020828403121561201e57600080fd5b81516119d381611c51565b8181038181111561056057610560611f92565b60008351602061204f82858389016119da565b81840191506000855461206181611dae565b6001828116801561207957600181146120ac576120d8565b7fffffffffffffffffffffffffffffffffffffffffffffffffffffffffffffff00841687528215158302870194506120d8565b896000528560002060005b848110156120d0578154898201529083019087016120b7565b505082870194505b50929998505050505050505050565b82815260406020820152600061105160408301846119fe565b600073ffffffffffffffffffffffffffffffffffffffff80871683528086166020840152508360408301526080606083015261213f60808301846119fe565b9695505050505050565b60006020828403121561215b57600080fd5b81516119d38161198856fea26469706673582212209757abd8af31b29c9e7bbab06d67b224919f252286dcd1f3b1de2c6ba6bdb65364736f6c63430008130033",
  "devdoc": {
    "events": {
      "Approval(address,address,uint256)": {
        "details": "Emitted when `owner` enables `approved` to manage the `tokenId` token."
      },
      "ApprovalForAll(address,address,bool)": {
        "details": "Emitted when `owner` enables or disables (`approved`) `operator` to manage all of its assets."
      },
      "Transfer(address,address,uint256)": {
        "details": "Emitted when `tokenId` token is transferred from `from` to `to`."
      }
    },
    "kind": "dev",
    "methods": {
      "approve(address,uint256)": {
        "details": "See {IERC721-approve}."
      },
      "balanceOf(address)": {
        "details": "See {IERC721-balanceOf}."
      },
      "getApproved(uint256)": {
        "details": "See {IERC721-getApproved}."
      },
      "isApprovedForAll(address,address)": {
        "details": "See {IERC721-isApprovedForAll}."
      },
      "name()": {
        "details": "See {IERC721Metadata-name}."
      },
      "owner()": {
        "details": "Returns the address of the current owner."
      },
      "ownerOf(uint256)": {
        "details": "See {IERC721-ownerOf}."
      },
      "renounceOwnership()": {
        "details": "Leaves the contract without owner. It will not be possible to call `onlyOwner` functions. Can only be called by the current owner. NOTE: Renouncing ownership will leave the contract without an owner, thereby disabling any functionality that is only available to the owner."
      },
      "safeTransferFrom(address,address,uint256)": {
        "details": "See {IERC721-safeTransferFrom}."
      },
      "safeTransferFrom(address,address,uint256,bytes)": {
        "details": "See {IERC721-safeTransferFrom}."
      },
      "setApprovalForAll(address,bool)": {
        "details": "See {IERC721-setApprovalForAll}."
      },
      "supportsInterface(bytes4)": {
        "details": "See {IERC165-supportsInterface}."
      },
      "symbol()": {
        "details": "See {IERC721Metadata-symbol}."
      },
      "tokenURI(uint256)": {
        "details": "See {IERC721Metadata-tokenURI}."
      },
      "transferFrom(address,address,uint256)": {
        "details": "See {IERC721-transferFrom}."
      },
      "transferOwnership(address)": {
        "details": "Transfers ownership of the contract to a new account (`newOwner`). Can only be called by the current owner."
      }
    },
    "version": 1
  },
  "userdoc": {
    "kind": "user",
    "methods": {
      "feedToken(uint256,uint256)": {
        "notice": "Adds points from `msg.sender` to NFT held by `account`"
      }
    },
    "version": 1
  },
  "storageLayout": {
    "storage": [
      {
        "astId": 216,
        "contract": "contracts/RFNFT.sol:RFNFT",
        "label": "_name",
        "offset": 0,
        "slot": "0",
        "type": "t_string_storage"
      },
      {
        "astId": 218,
        "contract": "contracts/RFNFT.sol:RFNFT",
        "label": "_symbol",
        "offset": 0,
        "slot": "1",
        "type": "t_string_storage"
      },
      {
        "astId": 222,
        "contract": "contracts/RFNFT.sol:RFNFT",
        "label": "_owners",
        "offset": 0,
        "slot": "2",
        "type": "t_mapping(t_uint256,t_address)"
      },
      {
        "astId": 226,
        "contract": "contracts/RFNFT.sol:RFNFT",
        "label": "_balances",
        "offset": 0,
        "slot": "3",
        "type": "t_mapping(t_address,t_uint256)"
      },
      {
        "astId": 230,
        "contract": "contracts/RFNFT.sol:RFNFT",
        "label": "_tokenApprovals",
        "offset": 0,
        "slot": "4",
        "type": "t_mapping(t_uint256,t_address)"
      },
      {
        "astId": 236,
        "contract": "contracts/RFNFT.sol:RFNFT",
        "label": "_operatorApprovals",
        "offset": 0,
        "slot": "5",
        "type": "t_mapping(t_address,t_mapping(t_address,t_bool))"
      },
      {
        "astId": 7,
        "contract": "contracts/RFNFT.sol:RFNFT",
        "label": "_owner",
        "offset": 0,
        "slot": "6",
        "type": "t_address"
      },
      {
        "astId": 2920,
        "contract": "contracts/RFNFT.sol:RFNFT",
        "label": "ownerTokenId",
        "offset": 0,
        "slot": "7",
        "type": "t_mapping(t_address,t_uint256)"
      },
      {
        "astId": 2924,
        "contract": "contracts/RFNFT.sol:RFNFT",
        "label": "tokenIdTier",
        "offset": 0,
        "slot": "8",
        "type": "t_mapping(t_uint256,t_uint256)"
      },
      {
        "astId": 2928,
        "contract": "contracts/RFNFT.sol:RFNFT",
        "label": "tokenIdPoints",
        "offset": 0,
        "slot": "9",
        "type": "t_mapping(t_uint256,t_uint256)"
      },
      {
        "astId": 2931,
        "contract": "contracts/RFNFT.sol:RFNFT",
        "label": "_pointsTransferable",
        "offset": 0,
        "slot": "10",
        "type": "t_bool"
      },
      {
        "astId": 2934,
        "contract": "contracts/RFNFT.sol:RFNFT",
        "label": "_tierThresholds",
        "offset": 0,
        "slot": "11",
        "type": "t_array(t_uint256)dyn_storage"
      },
      {
        "astId": 2937,
        "contract": "contracts/RFNFT.sol:RFNFT",
        "label": "_tierUris",
        "offset": 0,
        "slot": "12",
        "type": "t_array(t_string_storage)dyn_storage"
      },
      {
        "astId": 2939,
        "contract": "contracts/RFNFT.sol:RFNFT",
        "label": "_counter",
        "offset": 0,
        "slot": "13",
        "type": "t_uint256"
      },
      {
        "astId": 2942,
        "contract": "contracts/RFNFT.sol:RFNFT",
        "label": "_rfp",
        "offset": 0,
        "slot": "14",
        "type": "t_contract(IERC20)190"
      }
    ],
    "types": {
      "t_address": {
        "encoding": "inplace",
        "label": "address",
        "numberOfBytes": "20"
      },
      "t_array(t_string_storage)dyn_storage": {
        "base": "t_string_storage",
        "encoding": "dynamic_array",
        "label": "string[]",
        "numberOfBytes": "32"
      },
      "t_array(t_uint256)dyn_storage": {
        "base": "t_uint256",
        "encoding": "dynamic_array",
        "label": "uint256[]",
        "numberOfBytes": "32"
      },
      "t_bool": {
        "encoding": "inplace",
        "label": "bool",
        "numberOfBytes": "1"
      },
      "t_contract(IERC20)190": {
        "encoding": "inplace",
        "label": "contract IERC20",
        "numberOfBytes": "20"
      },
      "t_mapping(t_address,t_bool)": {
        "encoding": "mapping",
        "key": "t_address",
        "label": "mapping(address => bool)",
        "numberOfBytes": "32",
        "value": "t_bool"
      },
      "t_mapping(t_address,t_mapping(t_address,t_bool))": {
        "encoding": "mapping",
        "key": "t_address",
        "label": "mapping(address => mapping(address => bool))",
        "numberOfBytes": "32",
        "value": "t_mapping(t_address,t_bool)"
      },
      "t_mapping(t_address,t_uint256)": {
        "encoding": "mapping",
        "key": "t_address",
        "label": "mapping(address => uint256)",
        "numberOfBytes": "32",
        "value": "t_uint256"
      },
      "t_mapping(t_uint256,t_address)": {
        "encoding": "mapping",
        "key": "t_uint256",
        "label": "mapping(uint256 => address)",
        "numberOfBytes": "32",
        "value": "t_address"
      },
      "t_mapping(t_uint256,t_uint256)": {
        "encoding": "mapping",
        "key": "t_uint256",
        "label": "mapping(uint256 => uint256)",
        "numberOfBytes": "32",
        "value": "t_uint256"
      },
      "t_string_storage": {
        "encoding": "bytes",
        "label": "string",
        "numberOfBytes": "32"
      },
      "t_uint256": {
        "encoding": "inplace",
        "label": "uint256",
        "numberOfBytes": "32"
      }
    }
  }
}