{
  "address": "0x976c8244061CC363d1e72d0F1c0B4DBe9a78d483",
  "abi": [
    {
      "inputs": [
        {
          "internalType": "contract IERC20",
          "name": "rfp",
          "type": "address"
        },
        {
          "internalType": "uint256[]",
          "name": "thresholds",
          "type": "uint256[]"
        },
        {
          "internalType": "string[]",
          "name": "uris",
          "type": "string[]"
        }
      ],
      "stateMutability": "nonpayable",
      "type": "constructor"
    },
    {
      "inputs": [],
      "name": "InsufficientPoints",
      "type": "error"
    },
    {
      "inputs": [],
      "name": "InvalidTier",
      "type": "error"
    },
    {
      "inputs": [],
      "name": "InvalidZero",
      "type": "error"
    },
    {
      "inputs": [],
      "name": "OneTokenPerAddress",
      "type": "error"
    },
    {
      "anonymous": false,
      "inputs": [
        {
          "indexed": true,
          "internalType": "address",
          "name": "owner",
          "type": "address"
        },
        {
          "indexed": true,
          "internalType": "address",
          "name": "approved",
          "type": "address"
        },
        {
          "indexed": true,
          "internalType": "uint256",
          "name": "tokenId",
          "type": "uint256"
        }
      ],
      "name": "Approval",
      "type": "event"
    },
    {
      "anonymous": false,
      "inputs": [
        {
          "indexed": true,
          "internalType": "address",
          "name": "owner",
          "type": "address"
        },
        {
          "indexed": true,
          "internalType": "address",
          "name": "operator",
          "type": "address"
        },
        {
          "indexed": false,
          "internalType": "bool",
          "name": "approved",
          "type": "bool"
        }
      ],
      "name": "ApprovalForAll",
      "type": "event"
    },
    {
      "anonymous": false,
      "inputs": [
        {
          "indexed": false,
          "internalType": "uint256",
          "name": "",
          "type": "uint256"
        },
        {
          "indexed": false,
          "internalType": "uint256",
          "name": "",
          "type": "uint256"
        }
      ],
      "name": "LevelUp",
      "type": "event"
    },
    {
      "anonymous": false,
      "inputs": [
        {
          "indexed": false,
          "internalType": "uint256",
          "name": "",
          "type": "uint256"
        },
        {
          "indexed": false,
          "internalType": "string",
          "name": "",
          "type": "string"
        }
      ],
      "name": "NewTier",
      "type": "event"
    },
    {
      "anonymous": false,
      "inputs": [
        {
          "indexed": true,
          "internalType": "address",
          "name": "previousOwner",
          "type": "address"
        },
        {
          "indexed": true,
          "internalType": "address",
          "name": "newOwner",
          "type": "address"
        }
      ],
      "name": "OwnershipTransferred",
      "type": "event"
    },
    {
      "anonymous": false,
      "inputs": [
        {
          "indexed": false,
          "internalType": "uint256",
          "name": "tokenId",
          "type": "uint256"
        },
        {
          "indexed": false,
          "internalType": "uint256",
          "name": "points",
          "type": "uint256"
        }
      ],
      "name": "PointsAdded",
      "type": "event"
    },
    {
      "anonymous": false,
      "inputs": [
        {
          "indexed": false,
          "internalType": "uint256[]",
          "name": "thresholds",
          "type": "uint256[]"
        }
      ],
      "name": "ThresholdsSet",
      "type": "event"
    },
    {
      "anonymous": false,
      "inputs": [
        {
          "indexed": true,
          "internalType": "address",
          "name": "from",
          "type": "address"
        },
        {
          "indexed": true,
          "internalType": "address",
          "name": "to",
          "type": "address"
        },
        {
          "indexed": true,
          "internalType": "uint256",
          "name": "tokenId",
          "type": "uint256"
        }
      ],
      "name": "Transfer",
      "type": "event"
    },
    {
      "anonymous": false,
      "inputs": [
        {
          "indexed": false,
          "internalType": "string[]",
          "name": "uris",
          "type": "string[]"
        }
      ],
      "name": "UrisSet",
      "type": "event"
    },
    {
      "inputs": [
        {
          "internalType": "uint256",
          "name": "threshold",
          "type": "uint256"
        },
        {
          "internalType": "string",
          "name": "uri",
          "type": "string"
        }
      ],
      "name": "addTier",
      "outputs": [],
      "stateMutability": "nonpayable",
      "type": "function"
    },
    {
      "inputs": [
        {
          "internalType": "address",
          "name": "to",
          "type": "address"
        },
        {
          "internalType": "uint256",
          "name": "tokenId",
          "type": "uint256"
        }
      ],
      "name": "approve",
      "outputs": [],
      "stateMutability": "nonpayable",
      "type": "function"
    },
    {
      "inputs": [
        {
          "internalType": "address",
          "name": "owner",
          "type": "address"
        }
      ],
      "name": "balanceOf",
      "outputs": [
        {
          "internalType": "uint256",
          "name": "",
          "type": "uint256"
        }
      ],
      "stateMutability": "view",
      "type": "function"
    },
    {
      "inputs": [
        {
          "internalType": "uint256",
          "name": "tokenId",
          "type": "uint256"
        }
      ],
      "name": "canLevelUp",
      "outputs": [
        {
          "internalType": "bool",
          "name": "",
          "type": "bool"
        },
        {
          "internalType": "uint256",
          "name": "",
          "type": "uint256"
        }
      ],
      "stateMutability": "view",
      "type": "function"
    },
    {
      "inputs": [
        {
          "internalType": "uint256",
          "name": "idx",
          "type": "uint256"
        },
        {
          "internalType": "uint256",
          "name": "threshold",
          "type": "uint256"
        },
        {
          "internalType": "string",
          "name": "uri",
          "type": "string"
        }
      ],
      "name": "editTier",
      "outputs": [],
      "stateMutability": "nonpayable",
      "type": "function"
    },
    {
      "inputs": [
        {
          "internalType": "uint256",
          "name": "tokenId",
          "type": "uint256"
        },
        {
          "internalType": "uint256",
          "name": "amount",
          "type": "uint256"
        }
      ],
      "name": "feedToken",
      "outputs": [],
      "stateMutability": "nonpayable",
      "type": "function"
    },
    {
      "inputs": [
        {
          "internalType": "uint256",
          "name": "tokenId",
          "type": "uint256"
        }
      ],
      "name": "getApproved",
      "outputs": [
        {
          "internalType": "address",
          "name": "",
          "type": "address"
        }
      ],
      "stateMutability": "view",
      "type": "function"
    },
    {
      "inputs": [
        {
          "internalType": "address",
          "name": "account",
          "type": "address"
        }
      ],
      "name": "getOwnerPoints",
      "outputs": [
        {
          "internalType": "uint256",
          "name": "tier",
          "type": "uint256"
        }
      ],
      "stateMutability": "view",
      "type": "function"
    },
    {
      "inputs": [
        {
          "internalType": "address",
          "name": "account",
          "type": "address"
        }
      ],
      "name": "getOwnerTier",
      "outputs": [
        {
          "internalType": "uint256",
          "name": "tier",
          "type": "uint256"
        }
      ],
      "stateMutability": "view",
      "type": "function"
    },
    {
      "inputs": [
        {
          "internalType": "address",
          "name": "owner",
          "type": "address"
        },
        {
          "internalType": "address",
          "name": "operator",
          "type": "address"
        }
      ],
      "name": "isApprovedForAll",
      "outputs": [
        {
          "internalType": "bool",
          "name": "",
          "type": "bool"
        }
      ],
      "stateMutability": "view",
      "type": "function"
    },
    {
      "inputs": [
        {
          "internalType": "uint256",
          "name": "tokenId",
          "type": "uint256"
        }
      ],
      "name": "levelUp",
      "outputs": [],
      "stateMutability": "nonpayable",
      "type": "function"
    },
    {
      "inputs": [
        {
          "internalType": "address",
          "name": "account",
          "type": "address"
        }
      ],
      "name": "mint",
      "outputs": [],
      "stateMutability": "nonpayable",
      "type": "function"
    },
    {
      "inputs": [],
      "name": "name",
      "outputs": [
        {
          "internalType": "string",
          "name": "",
          "type": "string"
        }
      ],
      "stateMutability": "view",
      "type": "function"
    },
    {
      "inputs": [],
      "name": "owner",
      "outputs": [
        {
          "internalType": "address",
          "name": "",
          "type": "address"
        }
      ],
      "stateMutability": "view",
      "type": "function"
    },
    {
      "inputs": [
        {
          "internalType": "uint256",
          "name": "tokenId",
          "type": "uint256"
        }
      ],
      "name": "ownerOf",
      "outputs": [
        {
          "internalType": "address",
          "name": "",
          "type": "address"
        }
      ],
      "stateMutability": "view",
      "type": "function"
    },
    {
      "inputs": [
        {
          "internalType": "address",
          "name": "",
          "type": "address"
        }
      ],
      "name": "ownerTokenId",
      "outputs": [
        {
          "internalType": "uint256",
          "name": "",
          "type": "uint256"
        }
      ],
      "stateMutability": "view",
      "type": "function"
    },
    {
      "inputs": [],
      "name": "renounceOwnership",
      "outputs": [],
      "stateMutability": "nonpayable",
      "type": "function"
    },
    {
      "inputs": [
        {
          "internalType": "address",
          "name": "from",
          "type": "address"
        },
        {
          "internalType": "address",
          "name": "to",
          "type": "address"
        },
        {
          "internalType": "uint256",
          "name": "tokenId",
          "type": "uint256"
        }
      ],
      "name": "safeTransferFrom",
      "outputs": [],
      "stateMutability": "nonpayable",
      "type": "function"
    },
    {
      "inputs": [
        {
          "internalType": "address",
          "name": "from",
          "type": "address"
        },
        {
          "internalType": "address",
          "name": "to",
          "type": "address"
        },
        {
          "internalType": "uint256",
          "name": "tokenId",
          "type": "uint256"
        },
        {
          "internalType": "bytes",
          "name": "data",
          "type": "bytes"
        }
      ],
      "name": "safeTransferFrom",
      "outputs": [],
      "stateMutability": "nonpayable",
      "type": "function"
    },
    {
      "inputs": [
        {
          "internalType": "address",
          "name": "operator",
          "type": "address"
        },
        {
          "internalType": "bool",
          "name": "approved",
          "type": "bool"
        }
      ],
      "name": "setApprovalForAll",
      "outputs": [],
      "stateMutability": "nonpayable",
      "type": "function"
    },
    {
      "inputs": [
        {
          "internalType": "bytes4",
          "name": "interfaceId",
          "type": "bytes4"
        }
      ],
      "name": "supportsInterface",
      "outputs": [
        {
          "internalType": "bool",
          "name": "",
          "type": "bool"
        }
      ],
      "stateMutability": "view",
      "type": "function"
    },
    {
      "inputs": [],
      "name": "symbol",
      "outputs": [
        {
          "internalType": "string",
          "name": "",
          "type": "string"
        }
      ],
      "stateMutability": "view",
      "type": "function"
    },
    {
      "inputs": [
        {
          "internalType": "uint256",
          "name": "",
          "type": "uint256"
        }
      ],
      "name": "tokenIdPoints",
      "outputs": [
        {
          "internalType": "uint256",
          "name": "",
          "type": "uint256"
        }
      ],
      "stateMutability": "view",
      "type": "function"
    },
    {
      "inputs": [
        {
          "internalType": "uint256",
          "name": "",
          "type": "uint256"
        }
      ],
      "name": "tokenIdTier",
      "outputs": [
        {
          "internalType": "uint256",
          "name": "",
          "type": "uint256"
        }
      ],
      "stateMutability": "view",
      "type": "function"
    },
    {
      "inputs": [
        {
          "internalType": "uint256",
          "name": "tokenId",
          "type": "uint256"
        }
      ],
      "name": "tokenURI",
      "outputs": [
        {
          "internalType": "string",
          "name": "",
          "type": "string"
        }
      ],
      "stateMutability": "view",
      "type": "function"
    },
    {
      "inputs": [
        {
          "internalType": "address",
          "name": "from",
          "type": "address"
        },
        {
          "internalType": "address",
          "name": "to",
          "type": "address"
        },
        {
          "internalType": "uint256",
          "name": "tokenId",
          "type": "uint256"
        }
      ],
      "name": "transferFrom",
      "outputs": [],
      "stateMutability": "nonpayable",
      "type": "function"
    },
    {
      "inputs": [
        {
          "internalType": "address",
          "name": "newOwner",
          "type": "address"
        }
      ],
      "name": "transferOwnership",
      "outputs": [],
      "stateMutability": "nonpayable",
      "type": "function"
    }
  ],
  "transactionHash": "0x815814e8ad2408277a0e192f10eb974a9a62c2ff97f924a562c895a0ce5a82cb",
  "args": [
    "0x8431584b4DEfaB5f4aDd6A4221161F2Cb6823DE9",
    [
      "0",
      "50000000000000000000",
      "250000000000000000000",
      "1000000000000000000000",
      "2500000000000000000000",
      "5000000000000000000000"
    ],
    [
      "QmQeaUqw9SNXc1KzfLWDwXccBUr3uTdjhLJGDNZyAmDQMZ",
      "QmdTJAaf6Mhjs28yznELyaQ66mYXwMAXPgwWcre5fJ43VJ",
      "QmY85yz2EXvTN4aLsb9Xw26CBUD8PTrPGgBEoRBcJoGUTc",
      "QmfE9yEa3eeBN9vKHVsmzze1JeoWqsWJFazuFiVxUL1akW",
      "QmRqdmKQb21JiFaqddK3PATWdUE43i1gBXbiEXqSq38Bm8",
      "QmSxjsbQ2ZfAWDvbnenZnodUEAdX5U9DZ55F4fTDMriGaT"
    ]
  ],
  "numDeployments": 1,
  "solcInputHash": "d5c15a5ea775c860f1bd81c75806cab9",
  "bytecode": "0x6080604052600a805460ff191690553480156200001b57600080fd5b50604051620029e6380380620029e68339810160408190526200003e9162000446565b604051806040016040528060088152602001671499519a4813919560c21b81525060405180604001604052806005815260200164149193919560da1b81525081600090816200008e9190620005bd565b5060016200009d8282620005bd565b505050620000ba620000b46200014b60201b60201c565b6200014f565b600e80546001600160a01b0319166001600160a01b03851617905560005b825181101562000141576200012c838281518110620000fb57620000fb62000689565b602002602001015183838151811062000118576200011862000689565b6020026020010151620001a160201b60201c565b8062000138816200069f565b915050620000d8565b5050505062000703565b3390565b600680546001600160a01b038381166001600160a01b0319831681179093556040519116919082907f8be0079c531659141344cd1fd0a4f28419497f9722a3daafe3b4186f6b6457e090600090a35050565b620001ab62000256565b600b805460018181019092557f0175b7a638427703f0dbe7bb9bbf987a2551717b34e79f33b5b1008d1fa01db901839055600c805491820181556000527fdf6966c971051c3d54ec59162606531493a51404a002842f56009d7e5cf4a8c701620002168282620005bd565b507f44382b80b929d8771a9987012117d87deb44878e59e745cf761beb56fd2cbafa82826040516200024a929190620006c7565b60405180910390a15050565b6006546001600160a01b03163314620002b55760405162461bcd60e51b815260206004820181905260248201527f4f776e61626c653a2063616c6c6572206973206e6f7420746865206f776e6572604482015260640160405180910390fd5b565b634e487b7160e01b600052604160045260246000fd5b604051601f8201601f191681016001600160401b0381118282101715620002f857620002f8620002b7565b604052919050565b60006001600160401b038211156200031c576200031c620002b7565b5060051b60200190565b60005b838110156200034357818101518382015260200162000329565b50506000910152565b6000601f83818401126200035f57600080fd5b8251602062000378620003728362000300565b620002cd565b82815260059290921b850181019181810190878411156200039857600080fd5b8287015b848110156200043a5780516001600160401b0380821115620003be5760008081fd5b818a0191508a603f830112620003d45760008081fd5b85820151604082821115620003ed57620003ed620002b7565b62000400828b01601f19168901620002cd565b92508183528c81838601011115620004185760008081fd5b620004298289850183870162000326565b50508452509183019183016200039c565b50979650505050505050565b6000806000606084860312156200045c57600080fd5b83516001600160a01b03811681146200047457600080fd5b602085810151919450906001600160401b03808211156200049457600080fd5b818701915087601f830112620004a957600080fd5b8151620004ba620003728262000300565b81815260059190911b8301840190848101908a831115620004da57600080fd5b938501935b82851015620004fa57845182529385019390850190620004df565b60408a015190975094505050808311156200051457600080fd5b505062000524868287016200034c565b9150509250925092565b600181811c908216806200054357607f821691505b6020821081036200056457634e487b7160e01b600052602260045260246000fd5b50919050565b601f821115620005b857600081815260208120601f850160051c81016020861015620005935750805b601f850160051c820191505b81811015620005b4578281556001016200059f565b5050505b505050565b81516001600160401b03811115620005d957620005d9620002b7565b620005f181620005ea84546200052e565b846200056a565b602080601f831160018114620006295760008415620006105750858301515b600019600386901b1c1916600185901b178555620005b4565b600085815260208120601f198616915b828110156200065a5788860151825594840194600190910190840162000639565b5085821015620006795787850151600019600388901b60f8161c191681555b5050505050600190811b01905550565b634e487b7160e01b600052603260045260246000fd5b600060018201620006c057634e487b7160e01b600052601160045260246000fd5b5060010190565b8281526040602082015260008251806040840152620006ee81606085016020870162000326565b601f01601f1916919091016060019392505050565b6122d380620007136000396000f3fe608060405234801561001057600080fd5b50600436106101b95760003560e01c806370a08231116100f9578063b9eca90111610097578063e8f35d5a11610071578063e8f35d5a14610422578063e985e9c514610465578063f2fde38b146104ae578063f38210c6146104c157600080fd5b8063b9eca901146103cf578063c87b56dd146103ef578063c961df1f1461040257600080fd5b806395d89b41116100d357806395d89b411461038e578063a22cb46514610396578063ac8de2b0146103a9578063b88d4fde146103bc57600080fd5b806370a0823114610355578063715018a6146103685780638da5cb5b1461037057600080fd5b806327329fea1161016657806342842e0e1161014057806342842e0e146102d9578063530f5254146102ec5780636352211e1461032f5780636a6278421461034257600080fd5b806327329fea1461026e57806335def9451461029c578063393b3598146102af57600080fd5b8063095ea7b311610197578063095ea7b3146102335780630ce90ec21461024857806323b872dd1461025b57600080fd5b806301ffc9a7146101be57806306fdde03146101e6578063081812fc146101fb575b600080fd5b6101d16101cc366004611aed565b6104d4565b60405190151581526020015b60405180910390f35b6101ee6105b9565b6040516101dd9190611b7f565b61020e610209366004611b92565b61064b565b60405173ffffffffffffffffffffffffffffffffffffffff90911681526020016101dd565b610246610241366004611bd4565b61067f565b005b610246610256366004611b92565b610807565b610246610269366004611bfe565b6108d8565b61028e61027c366004611c3a565b60076020526000908152604090205481565b6040519081526020016101dd565b6102466102aa366004611d38565b61095f565b6102c26102bd366004611b92565b6109b9565b6040805192151583526020830191909152016101dd565b6102466102e7366004611bfe565b6109ef565b61028e6102fa366004611c3a565b73ffffffffffffffffffffffffffffffffffffffff166000908152600760209081526040808320548352600990915290205490565b61020e61033d366004611b92565b610a0a565b610246610350366004611c3a565b610a7c565b61028e610363366004611c3a565b610b1e565b610246610bd2565b60065473ffffffffffffffffffffffffffffffffffffffff1661020e565b6101ee610be6565b6102466103a4366004611d96565b610bf5565b6102466103b7366004611dcd565b610c04565b6102466103ca366004611def565b610d4c565b61028e6103dd366004611b92565b60096020526000908152604090205481565b6101ee6103fd366004611b92565b610dd4565b61028e610410366004611b92565b60086020526000908152604090205481565b61028e610430366004611c3a565b73ffffffffffffffffffffffffffffffffffffffff166000908152600760209081526040808320548352600890915290205490565b6101d1610473366004611e6b565b73ffffffffffffffffffffffffffffffffffffffff918216600090815260056020908152604080832093909416825291909152205460ff1690565b6102466104bc366004611c3a565b610e76565b6102466104cf366004611e9e565b610f10565b60007fffffffff0000000000000000000000000000000000000000000000000000000082167f80ac58cd00000000000000000000000000000000000000000000000000000000148061056757507fffffffff0000000000000000000000000000000000000000000000000000000082167f5b5e139f00000000000000000000000000000000000000000000000000000000145b806105b357507f01ffc9a7000000000000000000000000000000000000000000000000000000007fffffffff000000000000000000000000000000000000000000000000000000008316145b92915050565b6060600080546105c890611ee5565b80601f01602080910402602001604051908101604052809291908181526020018280546105f490611ee5565b80156106415780601f1061061657610100808354040283529160200191610641565b820191906000526020600020905b81548152906001019060200180831161062457829003601f168201915b5050505050905090565b600061065682610fbf565b5060009081526004602052604090205473ffffffffffffffffffffffffffffffffffffffff1690565b600061068a82610a0a565b90508073ffffffffffffffffffffffffffffffffffffffff168373ffffffffffffffffffffffffffffffffffffffff16036107325760405162461bcd60e51b815260206004820152602160248201527f4552433732313a20617070726f76616c20746f2063757272656e74206f776e6560448201527f720000000000000000000000000000000000000000000000000000000000000060648201526084015b60405180910390fd5b3373ffffffffffffffffffffffffffffffffffffffff82161480610786575073ffffffffffffffffffffffffffffffffffffffff8116600090815260056020908152604080832033845290915290205460ff165b6107f85760405162461bcd60e51b815260206004820152603d60248201527f4552433732313a20617070726f76652063616c6c6572206973206e6f7420746f60448201527f6b656e206f776e6572206f7220617070726f76656420666f7220616c6c0000006064820152608401610729565b6108028383611030565b505050565b60008082600003610844576040517f1e28d68500000000000000000000000000000000000000000000000000000000815260040160405180910390fd5b61084d836109b9565b9250905080610888576040517f303e7a0700000000000000000000000000000000000000000000000000000000815260040160405180910390fd5b60008381526008602090815260409182902084905581518581529081018490527f3b7ca85b5e3d1ebb3a81e8d9e27bfeb9ef2f447026c115421132a20b0733b73f910160405180910390a1505050565b6108e233826110d0565b6109545760405162461bcd60e51b815260206004820152602d60248201527f4552433732313a2063616c6c6572206973206e6f7420746f6b656e206f776e6560448201527f72206f7220617070726f766564000000000000000000000000000000000000006064820152608401610729565b610802838383611190565b61096761143d565b81600b848154811061097b5761097b611f32565b906000526020600020018190555080600c848154811061099d5761099d611f32565b9060005260206000200190816109b39190611faf565b50505050565b6000818152600960209081526040808320546008909252822054829190826109e0836114a4565b91821196919550909350505050565b61080283838360405180602001604052806000815250610d4c565b60008181526002602052604081205473ffffffffffffffffffffffffffffffffffffffff16806105b35760405162461bcd60e51b815260206004820152601860248201527f4552433732313a20696e76616c696420746f6b656e20494400000000000000006044820152606401610729565b6000610a8782610b1e565b1115610abf576040517f462c287600000000000000000000000000000000000000000000000000000000815260040160405180910390fd5b600d8054906000610acf836120f8565b9091555050600d805473ffffffffffffffffffffffffffffffffffffffff8316600090815260076020908152604080832084905592825260089052206001905554610b1b9082906114fc565b50565b600073ffffffffffffffffffffffffffffffffffffffff8216610ba95760405162461bcd60e51b815260206004820152602960248201527f4552433732313a2061646472657373207a65726f206973206e6f74206120766160448201527f6c6964206f776e657200000000000000000000000000000000000000000000006064820152608401610729565b5073ffffffffffffffffffffffffffffffffffffffff1660009081526003602052604090205490565b610bda61143d565b610be460006116d3565b565b6060600180546105c890611ee5565b610c0033838361174a565b5050565b81600003610c3e576040517f1e28d68500000000000000000000000000000000000000000000000000000000815260040160405180910390fd5b60008281526009602052604081205490610c588383612130565b60008581526009602052604090819020829055600e5490517f23b872dd0000000000000000000000000000000000000000000000000000000081523360048201523060248201526044810186905291925073ffffffffffffffffffffffffffffffffffffffff16906323b872dd906064016020604051808303816000875af1158015610ce8573d6000803e3d6000fd5b505050506040513d601f19601f82011682018060405250810190610d0c9190612143565b5060408051858152602081018590527ff54b9ab9e866899cf7486a617bf4f1e402300b8c2b16214e8f20f0d8ba03ca11910160405180910390a150505050565b610d5633836110d0565b610dc85760405162461bcd60e51b815260206004820152602d60248201527f4552433732313a2063616c6c6572206973206e6f7420746f6b656e206f776e6560448201527f72206f7220617070726f766564000000000000000000000000000000000000006064820152608401610729565b6109b38484848461185d565b6060610ddf82610fbf565b600082815260086020908152604091829020548251808401909352600783527f697066733a2f2f000000000000000000000000000000000000000000000000009183019190915290600c610e34600184612160565b81548110610e4457610e44611f32565b90600052602060002001604051602001610e5f929190612173565b604051602081830303815290604052915050919050565b610e7e61143d565b73ffffffffffffffffffffffffffffffffffffffff8116610f075760405162461bcd60e51b815260206004820152602660248201527f4f776e61626c653a206e6577206f776e657220697320746865207a65726f206160448201527f64647265737300000000000000000000000000000000000000000000000000006064820152608401610729565b610b1b816116d3565b610f1861143d565b600b805460018181019092557f0175b7a638427703f0dbe7bb9bbf987a2551717b34e79f33b5b1008d1fa01db901839055600c805491820181556000527fdf6966c971051c3d54ec59162606531493a51404a002842f56009d7e5cf4a8c701610f818282611faf565b507f44382b80b929d8771a9987012117d87deb44878e59e745cf761beb56fd2cbafa8282604051610fb392919061221e565b60405180910390a15050565b60008181526002602052604090205473ffffffffffffffffffffffffffffffffffffffff16610b1b5760405162461bcd60e51b815260206004820152601860248201527f4552433732313a20696e76616c696420746f6b656e20494400000000000000006044820152606401610729565b600081815260046020526040902080547fffffffffffffffffffffffff00000000000000000000000000000000000000001673ffffffffffffffffffffffffffffffffffffffff8416908117909155819061108a82610a0a565b73ffffffffffffffffffffffffffffffffffffffff167f8c5be1e5ebec7d5bd14f71427d1e84f3dd0314c0f7b2291e5b200ac8c7c3b92560405160405180910390a45050565b6000806110dc83610a0a565b90508073ffffffffffffffffffffffffffffffffffffffff168473ffffffffffffffffffffffffffffffffffffffff16148061114a575073ffffffffffffffffffffffffffffffffffffffff80821660009081526005602090815260408083209388168352929052205460ff165b8061118857508373ffffffffffffffffffffffffffffffffffffffff166111708461064b565b73ffffffffffffffffffffffffffffffffffffffff16145b949350505050565b8273ffffffffffffffffffffffffffffffffffffffff166111b082610a0a565b73ffffffffffffffffffffffffffffffffffffffff16146112395760405162461bcd60e51b815260206004820152602560248201527f4552433732313a207472616e736665722066726f6d20696e636f72726563742060448201527f6f776e65720000000000000000000000000000000000000000000000000000006064820152608401610729565b73ffffffffffffffffffffffffffffffffffffffff82166112c15760405162461bcd60e51b8152602060048201526024808201527f4552433732313a207472616e7366657220746f20746865207a65726f2061646460448201527f72657373000000000000000000000000000000000000000000000000000000006064820152608401610729565b8273ffffffffffffffffffffffffffffffffffffffff166112e182610a0a565b73ffffffffffffffffffffffffffffffffffffffff161461136a5760405162461bcd60e51b815260206004820152602560248201527f4552433732313a207472616e736665722066726f6d20696e636f72726563742060448201527f6f776e65720000000000000000000000000000000000000000000000000000006064820152608401610729565b600081815260046020908152604080832080547fffffffffffffffffffffffff000000000000000000000000000000000000000090811690915573ffffffffffffffffffffffffffffffffffffffff8781168086526003855283862080547fffffffffffffffffffffffffffffffffffffffffffffffffffffffffffffffff01905590871680865283862080546001019055868652600290945282852080549092168417909155905184937fddf252ad1be2c89b69c2b068fc378daa952ba7f163c4a11628f55a4df523b3ef91a4505050565b60065473ffffffffffffffffffffffffffffffffffffffff163314610be45760405162461bcd60e51b815260206004820181905260248201527f4f776e61626c653a2063616c6c6572206973206e6f7420746865206f776e65726044820152606401610729565b6000805b600b548110156114f657600b81815481106114c5576114c5611f32565b906000526020600020015483106114e457816114e0816120f8565b9250505b806114ee816120f8565b9150506114a8565b50919050565b73ffffffffffffffffffffffffffffffffffffffff821661155f5760405162461bcd60e51b815260206004820181905260248201527f4552433732313a206d696e7420746f20746865207a65726f20616464726573736044820152606401610729565b60008181526002602052604090205473ffffffffffffffffffffffffffffffffffffffff16156115d15760405162461bcd60e51b815260206004820152601c60248201527f4552433732313a20746f6b656e20616c7265616479206d696e746564000000006044820152606401610729565b60008181526002602052604090205473ffffffffffffffffffffffffffffffffffffffff16156116435760405162461bcd60e51b815260206004820152601c60248201527f4552433732313a20746f6b656e20616c7265616479206d696e746564000000006044820152606401610729565b73ffffffffffffffffffffffffffffffffffffffff8216600081815260036020908152604080832080546001019055848352600290915280822080547fffffffffffffffffffffffff0000000000000000000000000000000000000000168417905551839291907fddf252ad1be2c89b69c2b068fc378daa952ba7f163c4a11628f55a4df523b3ef908290a45050565b6006805473ffffffffffffffffffffffffffffffffffffffff8381167fffffffffffffffffffffffff0000000000000000000000000000000000000000831681179093556040519116919082907f8be0079c531659141344cd1fd0a4f28419497f9722a3daafe3b4186f6b6457e090600090a35050565b8173ffffffffffffffffffffffffffffffffffffffff168373ffffffffffffffffffffffffffffffffffffffff16036117c55760405162461bcd60e51b815260206004820152601960248201527f4552433732313a20617070726f766520746f2063616c6c6572000000000000006044820152606401610729565b73ffffffffffffffffffffffffffffffffffffffff83811660008181526005602090815260408083209487168084529482529182902080547fffffffffffffffffffffffffffffffffffffffffffffffffffffffffffffff001686151590811790915591519182527f17307eab39ab6107e8899845ad3d59bd9653f200f220920489ca2b5937696c31910160405180910390a3505050565b611868848484611190565b611874848484846118e6565b6109b35760405162461bcd60e51b815260206004820152603260248201527f4552433732313a207472616e7366657220746f206e6f6e20455243373231526560448201527f63656976657220696d706c656d656e74657200000000000000000000000000006064820152608401610729565b600073ffffffffffffffffffffffffffffffffffffffff84163b15611ab4576040517f150b7a0200000000000000000000000000000000000000000000000000000000815273ffffffffffffffffffffffffffffffffffffffff85169063150b7a029061195d903390899088908890600401612237565b6020604051808303816000875af19250505080156119b6575060408051601f3d9081017fffffffffffffffffffffffffffffffffffffffffffffffffffffffffffffffe01682019092526119b391810190612280565b60015b611a69573d8080156119e4576040519150601f19603f3d011682016040523d82523d6000602084013e6119e9565b606091505b508051600003611a615760405162461bcd60e51b815260206004820152603260248201527f4552433732313a207472616e7366657220746f206e6f6e20455243373231526560448201527f63656976657220696d706c656d656e74657200000000000000000000000000006064820152608401610729565b805181602001fd5b7fffffffff00000000000000000000000000000000000000000000000000000000167f150b7a0200000000000000000000000000000000000000000000000000000000149050611188565b506001949350505050565b7fffffffff0000000000000000000000000000000000000000000000000000000081168114610b1b57600080fd5b600060208284031215611aff57600080fd5b8135611b0a81611abf565b9392505050565b60005b83811015611b2c578181015183820152602001611b14565b50506000910152565b60008151808452611b4d816020860160208601611b11565b601f017fffffffffffffffffffffffffffffffffffffffffffffffffffffffffffffffe0169290920160200192915050565b602081526000611b0a6020830184611b35565b600060208284031215611ba457600080fd5b5035919050565b803573ffffffffffffffffffffffffffffffffffffffff81168114611bcf57600080fd5b919050565b60008060408385031215611be757600080fd5b611bf083611bab565b946020939093013593505050565b600080600060608486031215611c1357600080fd5b611c1c84611bab565b9250611c2a60208501611bab565b9150604084013590509250925092565b600060208284031215611c4c57600080fd5b611b0a82611bab565b7f4e487b7100000000000000000000000000000000000000000000000000000000600052604160045260246000fd5b600067ffffffffffffffff80841115611c9f57611c9f611c55565b604051601f85017fffffffffffffffffffffffffffffffffffffffffffffffffffffffffffffffe0908116603f01168101908282118183101715611ce557611ce5611c55565b81604052809350858152868686011115611cfe57600080fd5b858560208301376000602087830101525050509392505050565b600082601f830112611d2957600080fd5b611b0a83833560208501611c84565b600080600060608486031215611d4d57600080fd5b8335925060208401359150604084013567ffffffffffffffff811115611d7257600080fd5b611d7e86828701611d18565b9150509250925092565b8015158114610b1b57600080fd5b60008060408385031215611da957600080fd5b611db283611bab565b91506020830135611dc281611d88565b809150509250929050565b60008060408385031215611de057600080fd5b50508035926020909101359150565b60008060008060808587031215611e0557600080fd5b611e0e85611bab565b9350611e1c60208601611bab565b925060408501359150606085013567ffffffffffffffff811115611e3f57600080fd5b8501601f81018713611e5057600080fd5b611e5f87823560208401611c84565b91505092959194509250565b60008060408385031215611e7e57600080fd5b611e8783611bab565b9150611e9560208401611bab565b90509250929050565b60008060408385031215611eb157600080fd5b82359150602083013567ffffffffffffffff811115611ecf57600080fd5b611edb85828601611d18565b9150509250929050565b600181811c90821680611ef957607f821691505b6020821081036114f6577f4e487b7100000000000000000000000000000000000000000000000000000000600052602260045260246000fd5b7f4e487b7100000000000000000000000000000000000000000000000000000000600052603260045260246000fd5b601f82111561080257600081815260208120601f850160051c81016020861015611f885750805b601f850160051c820191505b81811015611fa757828155600101611f94565b505050505050565b815167ffffffffffffffff811115611fc957611fc9611c55565b611fdd81611fd78454611ee5565b84611f61565b602080601f8311600181146120305760008415611ffa5750858301515b7fffffffffffffffffffffffffffffffffffffffffffffffffffffffffffffffff600386901b1c1916600185901b178555611fa7565b6000858152602081207fffffffffffffffffffffffffffffffffffffffffffffffffffffffffffffffe08616915b8281101561207d5788860151825594840194600190910190840161205e565b50858210156120b957878501517fffffffffffffffffffffffffffffffffffffffffffffffffffffffffffffffff600388901b60f8161c191681555b5050505050600190811b01905550565b7f4e487b7100000000000000000000000000000000000000000000000000000000600052601160045260246000fd5b60007fffffffffffffffffffffffffffffffffffffffffffffffffffffffffffffffff8203612129576121296120c9565b5060010190565b808201808211156105b3576105b36120c9565b60006020828403121561215557600080fd5b8151611b0a81611d88565b818103818111156105b3576105b36120c9565b6000835160206121868285838901611b11565b81840191506000855461219881611ee5565b600182811680156121b057600181146121e35761220f565b7fffffffffffffffffffffffffffffffffffffffffffffffffffffffffffffff008416875282151583028701945061220f565b896000528560002060005b84811015612207578154898201529083019087016121ee565b505082870194505b50929998505050505050505050565b8281526040602082015260006111886040830184611b35565b600073ffffffffffffffffffffffffffffffffffffffff8087168352808616602084015250836040830152608060608301526122766080830184611b35565b9695505050505050565b60006020828403121561229257600080fd5b8151611b0a81611abf56fea264697066735822122036c609c35423257a0cea2381a37709a8a64df3682150cd427d43b46d2509480864736f6c63430008130033",
  "devdoc": {
    "events": {
      "Approval(address,address,uint256)": {
        "details": "Emitted when `owner` enables `approved` to manage the `tokenId` token."
      },
      "ApprovalForAll(address,address,bool)": {
        "details": "Emitted when `owner` enables or disables (`approved`) `operator` to manage all of its assets."
      },
      "Transfer(address,address,uint256)": {
        "details": "Emitted when `tokenId` token is transferred from `from` to `to`."
      }
    },
    "kind": "dev",
    "methods": {
      "approve(address,uint256)": {
        "details": "See {IERC721-approve}."
      },
      "balanceOf(address)": {
        "details": "See {IERC721-balanceOf}."
      },
      "getApproved(uint256)": {
        "details": "See {IERC721-getApproved}."
      },
      "isApprovedForAll(address,address)": {
        "details": "See {IERC721-isApprovedForAll}."
      },
      "name()": {
        "details": "See {IERC721Metadata-name}."
      },
      "owner()": {
        "details": "Returns the address of the current owner."
      },
      "ownerOf(uint256)": {
        "details": "See {IERC721-ownerOf}."
      },
      "renounceOwnership()": {
        "details": "Leaves the contract without owner. It will not be possible to call `onlyOwner` functions. Can only be called by the current owner. NOTE: Renouncing ownership will leave the contract without an owner, thereby disabling any functionality that is only available to the owner."
      },
      "safeTransferFrom(address,address,uint256)": {
        "details": "See {IERC721-safeTransferFrom}."
      },
      "safeTransferFrom(address,address,uint256,bytes)": {
        "details": "See {IERC721-safeTransferFrom}."
      },
      "setApprovalForAll(address,bool)": {
        "details": "See {IERC721-setApprovalForAll}."
      },
      "supportsInterface(bytes4)": {
        "details": "See {IERC165-supportsInterface}."
      },
      "symbol()": {
        "details": "See {IERC721Metadata-symbol}."
      },
      "tokenURI(uint256)": {
        "details": "See {IERC721Metadata-tokenURI}."
      },
      "transferFrom(address,address,uint256)": {
        "details": "See {IERC721-transferFrom}."
      },
      "transferOwnership(address)": {
        "details": "Transfers ownership of the contract to a new account (`newOwner`). Can only be called by the current owner."
      }
    },
    "version": 1
  },
  "userdoc": {
    "kind": "user",
    "methods": {
      "feedToken(uint256,uint256)": {
        "notice": "Adds points from `msg.sender` to NFT held by `account`"
      }
    },
    "version": 1
  },
  "storageLayout": {
    "storage": [
      {
        "astId": 216,
        "contract": "contracts/RFNFT.sol:RFNFT",
        "label": "_name",
        "offset": 0,
        "slot": "0",
        "type": "t_string_storage"
      },
      {
        "astId": 218,
        "contract": "contracts/RFNFT.sol:RFNFT",
        "label": "_symbol",
        "offset": 0,
        "slot": "1",
        "type": "t_string_storage"
      },
      {
        "astId": 222,
        "contract": "contracts/RFNFT.sol:RFNFT",
        "label": "_owners",
        "offset": 0,
        "slot": "2",
        "type": "t_mapping(t_uint256,t_address)"
      },
      {
        "astId": 226,
        "contract": "contracts/RFNFT.sol:RFNFT",
        "label": "_balances",
        "offset": 0,
        "slot": "3",
        "type": "t_mapping(t_address,t_uint256)"
      },
      {
        "astId": 230,
        "contract": "contracts/RFNFT.sol:RFNFT",
        "label": "_tokenApprovals",
        "offset": 0,
        "slot": "4",
        "type": "t_mapping(t_uint256,t_address)"
      },
      {
        "astId": 236,
        "contract": "contracts/RFNFT.sol:RFNFT",
        "label": "_operatorApprovals",
        "offset": 0,
        "slot": "5",
        "type": "t_mapping(t_address,t_mapping(t_address,t_bool))"
      },
      {
        "astId": 7,
        "contract": "contracts/RFNFT.sol:RFNFT",
        "label": "_owner",
        "offset": 0,
        "slot": "6",
        "type": "t_address"
      },
      {
        "astId": 2926,
        "contract": "contracts/RFNFT.sol:RFNFT",
        "label": "ownerTokenId",
        "offset": 0,
        "slot": "7",
        "type": "t_mapping(t_address,t_uint256)"
      },
      {
        "astId": 2930,
        "contract": "contracts/RFNFT.sol:RFNFT",
        "label": "tokenIdTier",
        "offset": 0,
        "slot": "8",
        "type": "t_mapping(t_uint256,t_uint256)"
      },
      {
        "astId": 2934,
        "contract": "contracts/RFNFT.sol:RFNFT",
        "label": "tokenIdPoints",
        "offset": 0,
        "slot": "9",
        "type": "t_mapping(t_uint256,t_uint256)"
      },
      {
        "astId": 2937,
        "contract": "contracts/RFNFT.sol:RFNFT",
        "label": "_pointsTransferable",
        "offset": 0,
        "slot": "10",
        "type": "t_bool"
      },
      {
        "astId": 2940,
        "contract": "contracts/RFNFT.sol:RFNFT",
        "label": "_tierThresholds",
        "offset": 0,
        "slot": "11",
        "type": "t_array(t_uint256)dyn_storage"
      },
      {
        "astId": 2943,
        "contract": "contracts/RFNFT.sol:RFNFT",
        "label": "_tierUris",
        "offset": 0,
        "slot": "12",
        "type": "t_array(t_string_storage)dyn_storage"
      },
      {
        "astId": 2945,
        "contract": "contracts/RFNFT.sol:RFNFT",
        "label": "_counter",
        "offset": 0,
        "slot": "13",
        "type": "t_uint256"
      },
      {
        "astId": 2948,
        "contract": "contracts/RFNFT.sol:RFNFT",
        "label": "_rfp",
        "offset": 0,
        "slot": "14",
        "type": "t_contract(IERC20)190"
      }
    ],
    "types": {
      "t_address": {
        "encoding": "inplace",
        "label": "address",
        "numberOfBytes": "20"
      },
      "t_array(t_string_storage)dyn_storage": {
        "base": "t_string_storage",
        "encoding": "dynamic_array",
        "label": "string[]",
        "numberOfBytes": "32"
      },
      "t_array(t_uint256)dyn_storage": {
        "base": "t_uint256",
        "encoding": "dynamic_array",
        "label": "uint256[]",
        "numberOfBytes": "32"
      },
      "t_bool": {
        "encoding": "inplace",
        "label": "bool",
        "numberOfBytes": "1"
      },
      "t_contract(IERC20)190": {
        "encoding": "inplace",
        "label": "contract IERC20",
        "numberOfBytes": "20"
      },
      "t_mapping(t_address,t_bool)": {
        "encoding": "mapping",
        "key": "t_address",
        "label": "mapping(address => bool)",
        "numberOfBytes": "32",
        "value": "t_bool"
      },
      "t_mapping(t_address,t_mapping(t_address,t_bool))": {
        "encoding": "mapping",
        "key": "t_address",
        "label": "mapping(address => mapping(address => bool))",
        "numberOfBytes": "32",
        "value": "t_mapping(t_address,t_bool)"
      },
      "t_mapping(t_address,t_uint256)": {
        "encoding": "mapping",
        "key": "t_address",
        "label": "mapping(address => uint256)",
        "numberOfBytes": "32",
        "value": "t_uint256"
      },
      "t_mapping(t_uint256,t_address)": {
        "encoding": "mapping",
        "key": "t_uint256",
        "label": "mapping(uint256 => address)",
        "numberOfBytes": "32",
        "value": "t_address"
      },
      "t_mapping(t_uint256,t_uint256)": {
        "encoding": "mapping",
        "key": "t_uint256",
        "label": "mapping(uint256 => uint256)",
        "numberOfBytes": "32",
        "value": "t_uint256"
      },
      "t_string_storage": {
        "encoding": "bytes",
        "label": "string",
        "numberOfBytes": "32"
      },
      "t_uint256": {
        "encoding": "inplace",
        "label": "uint256",
        "numberOfBytes": "32"
      }
    }
  }
}